:020000040000FA
:060000000A128A11EE2F26
:100EA000F0007008203E84008313000883120313AF
:100EB000880008003F3406345B344F3466346D34A8
:100EC0007D3407347F346F3477347C3439345E3486
:100ED000793471347E088A007F0882000A128A11F0
:100EE0006A270A128A118000840A04087D06031901
:100EF0000034FF0A0319FE0A6E2F8C2FC730F20050
:100F0000812FF20B802F842F852FFF30F0070318DD
:100F1000F10AFF30F1078C2F70087104031D912F27
:100F2000922F7E2F932F0800F5010A128A11B827FD
:100F30000A128A119B2F75080A128A1150270A1269
:100F40008A11F430F0000130F1000A128A117D2775
:100F50000A128A110130F3007308F50775080F397A
:100F6000F4007408F5009B2F9B2F0A128A110028A9
:100F7000831603138801FF30831203138800F430B3
:100F8000F0000130F1000A128A117D270A128A113D
:100F9000831203138801F430F0000130F1000A12CB
:100FA0008A117D270A128A11FF30831203138800E9
:100FB000F430F0000130F1000A128A117D270A1284
:100FC0008A11831203138801F430F0000130F1001C
:100FD0000A128A117D270A128A1108008313303001
:100FE000FD000730FE005A30FF00203084000A1256
:100FF0008A116E270A128A1183010A128A11942F0C
:04400E00D4E0FFFFFC
:00000001FF
